{
  "contractName": "FeeSupport",
  "abi": [
    {
      "constant": false,
      "inputs": [],
      "name": "renounceOwnership",
      "outputs": [],
      "payable": false,
      "stateMutability": "nonpayable",
      "type": "function"
    },
    {
      "constant": true,
      "inputs": [],
      "name": "owner",
      "outputs": [
        {
          "name": "",
          "type": "address"
        }
      ],
      "payable": false,
      "stateMutability": "view",
      "type": "function"
    },
    {
      "constant": true,
      "inputs": [],
      "name": "isOwner",
      "outputs": [
        {
          "name": "",
          "type": "bool"
        }
      ],
      "payable": false,
      "stateMutability": "view",
      "type": "function"
    },
    {
      "constant": false,
      "inputs": [
        {
          "name": "newOwner",
          "type": "address"
        }
      ],
      "name": "transferOwnership",
      "outputs": [],
      "payable": false,
      "stateMutability": "nonpayable",
      "type": "function"
    },
    {
      "anonymous": false,
      "inputs": [
        {
          "indexed": true,
          "name": "previousOwner",
          "type": "address"
        },
        {
          "indexed": true,
          "name": "newOwner",
          "type": "address"
        }
      ],
      "name": "OwnershipTransferred",
      "type": "event"
    },
    {
      "constant": false,
      "inputs": [],
      "name": "withdraw",
      "outputs": [],
      "payable": false,
      "stateMutability": "nonpayable",
      "type": "function"
    },
    {
      "constant": false,
      "inputs": [
        {
          "name": "_fee",
          "type": "uint256"
        }
      ],
      "name": "setPostFee",
      "outputs": [],
      "payable": false,
      "stateMutability": "nonpayable",
      "type": "function"
    },
    {
      "constant": false,
      "inputs": [],
      "name": "getPostFee",
      "outputs": [
        {
          "name": "",
          "type": "uint256"
        }
      ],
      "payable": false,
      "stateMutability": "nonpayable",
      "type": "function"
    },
    {
      "constant": true,
      "inputs": [],
      "name": "balance",
      "outputs": [
        {
          "name": "",
          "type": "uint256"
        }
      ],
      "payable": false,
      "stateMutability": "view",
      "type": "function"
    }
  ],
  "bytecode": "0x608060405266038d7ea4c68000600155662386f26fc10000600255336000806101000a81548173ffffffffffffffffffffffffffffffffffffffff021916908373ffffffffffffffffffffffffffffffffffffffff1602179055506000809054906101000a900473ffffffffffffffffffffffffffffffffffffffff1673ffffffffffffffffffffffffffffffffffffffff16600073ffffffffffffffffffffffffffffffffffffffff167f8be0079c531659141344cd1fd0a4f28419497f9722a3daafe3b4186f6b6457e060405160405180910390a361058c806100e56000396000f3fe60806040526004361061008e576000357c0100000000000000000000000000000000000000000000000000000000900463ffffffff168063129d1da01461009357806326eb4ca8146100be5780633ccfd60b146100f9578063715018a6146101105780638da5cb5b146101275780638f32d59b1461017e578063b69ef8a8146101ad578063f2fde38b146101d8575b600080fd5b34801561009f57600080fd5b506100a8610229565b6040518082815260200191505060405180910390f35b3480156100ca57600080fd5b506100f7600480360360208110156100e157600080fd5b8101908080359060200190929190505050610233565b005b34801561010557600080fd5b5061010e610250565b005b34801561011c57600080fd5b506101256102c3565b005b34801561013357600080fd5b5061013c610395565b604051808273ffffffffffffffffffffffffffffffffffffffff1673ffffffffffffffffffffffffffffffffffffffff16815260200191505060405180910390f35b34801561018a57600080fd5b506101936103be565b604051808215151515815260200191505060405180910390f35b3480156101b957600080fd5b506101c2610415565b6040518082815260200191505060405180910390f35b3480156101e457600080fd5b50610227600480360360208110156101fb57600080fd5b81019080803573ffffffffffffffffffffffffffffffffffffffff169060200190929190505050610447565b005b6000600154905090565b61023b6103be565b151561024657600080fd5b8060018190555050565b6102586103be565b151561026357600080fd5b3373ffffffffffffffffffffffffffffffffffffffff166108fc3073ffffffffffffffffffffffffffffffffffffffff16319081150290604051600060405180830381858888f193505050501580156102c0573d6000803e3d6000fd5b50565b6102cb6103be565b15156102d657600080fd5b600073ffffffffffffffffffffffffffffffffffffffff166000809054906101000a900473ffffffffffffffffffffffffffffffffffffffff1673ffffffffffffffffffffffffffffffffffffffff167f8be0079c531659141344cd1fd0a4f28419497f9722a3daafe3b4186f6b6457e060405160405180910390a360008060006101000a81548173ffffffffffffffffffffffffffffffffffffffff021916908373ffffffffffffffffffffffffffffffffffffffff160217905550565b60008060009054906101000a900473ffffffffffffffffffffffffffffffffffffffff16905090565b60008060009054906101000a900473ffffffffffffffffffffffffffffffffffffffff1673ffffffffffffffffffffffffffffffffffffffff163373ffffffffffffffffffffffffffffffffffffffff1614905090565b600061041f6103be565b151561042a57600080fd5b3073ffffffffffffffffffffffffffffffffffffffff1631905090565b61044f6103be565b151561045a57600080fd5b61046381610466565b50565b600073ffffffffffffffffffffffffffffffffffffffff168173ffffffffffffffffffffffffffffffffffffffff16141515156104a257600080fd5b8073ffffffffffffffffffffffffffffffffffffffff166000809054906101000a900473ffffffffffffffffffffffffffffffffffffffff1673ffffffffffffffffffffffffffffffffffffffff167f8be0079c531659141344cd1fd0a4f28419497f9722a3daafe3b4186f6b6457e060405160405180910390a3806000806101000a81548173ffffffffffffffffffffffffffffffffffffffff021916908373ffffffffffffffffffffffffffffffffffffffff1602179055505056fea165627a7a72305820fb76bdcf2b21a9f028be93bbfe1302f8f6e3d3d320d19017e5d5ff8355ecbde60029",
  "source": "pragma solidity ^0.5.0;\r\nimport './ownable.sol';\r\n\r\n/**\r\n * @title FeeSupport\r\n * @author Duncan\r\n * @dev The FeeSupport contract is used to support post contract, making it capable set postFee and collect fee from the contract.\r\n */\r\ncontract FeeSupport is Ownable{\r\n    \r\n    uint postFee = 1e15; // wei\r\n    uint addTxHashFee = 1e16; // wei\r\n    /**\r\n     * @dev withdraw money from the contract to owner\r\n     */\r\n    function withdraw() external onlyOwner {\r\n        msg.sender.transfer(address(this).balance);\r\n    }\r\n    \r\n    /**\r\n     * @dev setter of postFee\r\n     */    \r\n    function setPostFee(uint _fee) external onlyOwner {\r\n        postFee = _fee;\r\n    }   \r\n    \r\n    /**\r\n     * @return fee needed to post an article\r\n     */      \r\n    function getPostFee() public returns (uint) {\r\n        return postFee;\r\n    }\r\n    \r\n    /**\r\n     * @return return the current balance the contract has\r\n     */       \r\n    function balance() public view onlyOwner returns (uint)  {\r\n        return address(this).balance;\r\n    }\r\n    \r\n    /**\r\n     * @dev the modifier is used on any function requiring postFee \r\n     */     \r\n    modifier chargePostFee() {\r\n        require(msg.value >= postFee);\r\n        _;\r\n    }\r\n    \r\n    modifier chargeAddTxHashFee() {\r\n        require(msg.value >= addTxHashFee);\r\n        _;\r\n    }\r\n    \r\n}",
  "sourcePath": "D:\\Duncan\\desktop\\NTU\\107-2\\Dapp\\workspace\\BlockBoard\\solidity\\contracts\\feeSupport.sol",
  "compiler": {
    "name": "solc",
    "version": "0.5.0+commit.1d4f565a.Emscripten.clang"
  },
  "schemaVersion": "3.0.6",
  "updatedAt": "2019-04-19T03:05:27.745Z",
  "devdoc": {
    "author": "Duncan\r",
    "details": "The FeeSupport contract is used to support post contract, making it capable set postFee and collect fee from the contract.\r",
    "methods": {
      "balance()": {
        "return": "return the current balance the contract has\r"
      },
      "getPostFee()": {
        "return": "fee needed to post an article\r"
      },
      "isOwner()": {
        "return": "true if `msg.sender` is the owner of the contract.\r"
      },
      "owner()": {
        "return": "the address of the owner.\r"
      },
      "renounceOwnership()": {
        "details": "Allows the current owner to relinquish control of the contract.\r It will not be possible to call the functions with the `onlyOwner`\r modifier anymore.\r"
      },
      "setPostFee(uint256)": {
        "details": "setter of postFee\r"
      },
      "transferOwnership(address)": {
        "details": "Allows the current owner to transfer control of the contract to a newOwner.\r",
        "params": {
          "newOwner": "The address to transfer ownership to.\r"
        }
      },
      "withdraw()": {
        "details": "withdraw money from the contract to owner\r"
      }
    },
    "title": "FeeSupport\r"
  },
  "userdoc": {
    "methods": {
      "renounceOwnership()": {
        "notice": "Renouncing ownership will leave the contract without an owner,\r thereby removing any functionality that is only available to the owner.\r"
      }
    }
  }
}