{
  "contractName": "Post",
  "abi": [
    {
      "constant": false,
      "inputs": [],
      "name": "getPostFee",
      "outputs": [
        {
          "name": "",
          "type": "uint256"
        }
      ],
      "payable": false,
      "stateMutability": "nonpayable",
      "type": "function",
      "signature": "0x129d1da0"
    },
    {
      "constant": false,
      "inputs": [
        {
          "name": "_fee",
          "type": "uint256"
        }
      ],
      "name": "setPostFee",
      "outputs": [],
      "payable": false,
      "stateMutability": "nonpayable",
      "type": "function",
      "signature": "0x26eb4ca8"
    },
    {
      "constant": false,
      "inputs": [],
      "name": "withdraw",
      "outputs": [],
      "payable": false,
      "stateMutability": "nonpayable",
      "type": "function",
      "signature": "0x3ccfd60b"
    },
    {
      "constant": false,
      "inputs": [],
      "name": "renounceOwnership",
      "outputs": [],
      "payable": false,
      "stateMutability": "nonpayable",
      "type": "function",
      "signature": "0x715018a6"
    },
    {
      "constant": true,
      "inputs": [],
      "name": "owner",
      "outputs": [
        {
          "name": "",
          "type": "address"
        }
      ],
      "payable": false,
      "stateMutability": "view",
      "type": "function",
      "signature": "0x8da5cb5b"
    },
    {
      "constant": true,
      "inputs": [],
      "name": "isOwner",
      "outputs": [
        {
          "name": "",
          "type": "bool"
        }
      ],
      "payable": false,
      "stateMutability": "view",
      "type": "function",
      "signature": "0x8f32d59b"
    },
    {
      "constant": true,
      "inputs": [],
      "name": "balance",
      "outputs": [
        {
          "name": "",
          "type": "uint256"
        }
      ],
      "payable": false,
      "stateMutability": "view",
      "type": "function",
      "signature": "0xb69ef8a8"
    },
    {
      "constant": false,
      "inputs": [
        {
          "name": "newOwner",
          "type": "address"
        }
      ],
      "name": "transferOwnership",
      "outputs": [],
      "payable": false,
      "stateMutability": "nonpayable",
      "type": "function",
      "signature": "0xf2fde38b"
    },
    {
      "anonymous": false,
      "inputs": [
        {
          "indexed": true,
          "name": "previousOwner",
          "type": "address"
        },
        {
          "indexed": true,
          "name": "newOwner",
          "type": "address"
        }
      ],
      "name": "OwnershipTransferred",
      "type": "event",
      "signature": "0x8be0079c531659141344cd1fd0a4f28419497f9722a3daafe3b4186f6b6457e0"
    },
    {
      "constant": false,
      "inputs": [
        {
          "name": "_replyTxHash",
          "type": "uint256"
        },
        {
          "name": "_content",
          "type": "string"
        }
      ],
      "name": "post",
      "outputs": [],
      "payable": true,
      "stateMutability": "payable",
      "type": "function",
      "signature": "0x591a5eb6"
    },
    {
      "constant": false,
      "inputs": [
        {
          "name": "_postTxHash",
          "type": "uint256"
        }
      ],
      "name": "addPostTxHashes",
      "outputs": [],
      "payable": true,
      "stateMutability": "payable",
      "type": "function",
      "signature": "0x503877fa"
    },
    {
      "constant": true,
      "inputs": [],
      "name": "getPostTxHashes",
      "outputs": [
        {
          "name": "",
          "type": "uint256[]"
        }
      ],
      "payable": false,
      "stateMutability": "view",
      "type": "function",
      "signature": "0x95dcf0af"
    }
  ],
  "bytecode": "0x608060405266038d7ea4c68000600155662386f26fc10000600255336000806101000a81548173ffffffffffffffffffffffffffffffffffffffff021916908373ffffffffffffffffffffffffffffffffffffffff1602179055506000809054906101000a900473ffffffffffffffffffffffffffffffffffffffff1673ffffffffffffffffffffffffffffffffffffffff16600073ffffffffffffffffffffffffffffffffffffffff167f8be0079c531659141344cd1fd0a4f28419497f9722a3daafe3b4186f6b6457e060405160405180910390a36107b9806100e56000396000f3fe6080604052600436106100af576000357c0100000000000000000000000000000000000000000000000000000000900463ffffffff168063129d1da0146100b457806326eb4ca8146100df5780633ccfd60b1461011a578063503877fa14610131578063591a5eb61461015f578063715018a6146102245780638da5cb5b1461023b5780638f32d59b1461029257806395dcf0af146102c1578063b69ef8a81461032d578063f2fde38b14610358575b600080fd5b3480156100c057600080fd5b506100c96103a9565b6040518082815260200191505060405180910390f35b3480156100eb57600080fd5b506101186004803603602081101561010257600080fd5b81019080803590602001909291905050506103b3565b005b34801561012657600080fd5b5061012f6103d0565b005b61015d6004803603602081101561014757600080fd5b8101908080359060200190929190505050610443565b005b6102226004803603604081101561017557600080fd5b81019080803590602001909291908035906020019064010000000081111561019c57600080fd5b8201836020820111156101ae57600080fd5b803590602001918460018302840111640100000000831117156101d057600080fd5b91908080601f016020809104026020016040519081016040528093929190818152602001838380828437600081840152601f19601f820116905080830192505050505050509192919290505050610483565b005b34801561023057600080fd5b50610239610498565b005b34801561024757600080fd5b5061025061056a565b604051808273ffffffffffffffffffffffffffffffffffffffff1673ffffffffffffffffffffffffffffffffffffffff16815260200191505060405180910390f35b34801561029e57600080fd5b506102a7610593565b604051808215151515815260200191505060405180910390f35b3480156102cd57600080fd5b506102d66105ea565b6040518080602001828103825283818151815260200191508051906020019060200280838360005b838110156103195780820151818401526020810190506102fe565b505050509050019250505060405180910390f35b34801561033957600080fd5b50610342610642565b6040518082815260200191505060405180910390f35b34801561036457600080fd5b506103a76004803603602081101561037b57600080fd5b81019080803573ffffffffffffffffffffffffffffffffffffffff169060200190929190505050610674565b005b6000600154905090565b6103bb610593565b15156103c657600080fd5b8060018190555050565b6103d8610593565b15156103e357600080fd5b3373ffffffffffffffffffffffffffffffffffffffff166108fc3073ffffffffffffffffffffffffffffffffffffffff16319081150290604051600060405180830381858888f19350505050158015610440573d6000803e3d6000fd5b50565b600254341015151561045457600080fd5b600381908060018154018082558091505090600182039060005260206000200160009091929091909150555050565b600154341015151561049457600080fd5b5050565b6104a0610593565b15156104ab57600080fd5b600073ffffffffffffffffffffffffffffffffffffffff166000809054906101000a900473ffffffffffffffffffffffffffffffffffffffff1673ffffffffffffffffffffffffffffffffffffffff167f8be0079c531659141344cd1fd0a4f28419497f9722a3daafe3b4186f6b6457e060405160405180910390a360008060006101000a81548173ffffffffffffffffffffffffffffffffffffffff021916908373ffffffffffffffffffffffffffffffffffffffff160217905550565b60008060009054906101000a900473ffffffffffffffffffffffffffffffffffffffff16905090565b60008060009054906101000a900473ffffffffffffffffffffffffffffffffffffffff1673ffffffffffffffffffffffffffffffffffffffff163373ffffffffffffffffffffffffffffffffffffffff1614905090565b6060600380548060200260200160405190810160405280929190818152602001828054801561063857602002820191906000526020600020905b815481526020019060010190808311610624575b5050505050905090565b600061064c610593565b151561065757600080fd5b3073ffffffffffffffffffffffffffffffffffffffff1631905090565b61067c610593565b151561068757600080fd5b61069081610693565b50565b600073ffffffffffffffffffffffffffffffffffffffff168173ffffffffffffffffffffffffffffffffffffffff16141515156106cf57600080fd5b8073ffffffffffffffffffffffffffffffffffffffff166000809054906101000a900473ffffffffffffffffffffffffffffffffffffffff1673ffffffffffffffffffffffffffffffffffffffff167f8be0079c531659141344cd1fd0a4f28419497f9722a3daafe3b4186f6b6457e060405160405180910390a3806000806101000a81548173ffffffffffffffffffffffffffffffffffffffff021916908373ffffffffffffffffffffffffffffffffffffffff1602179055505056fea165627a7a72305820b149ef52a81633e7eac326f2c9335fdb085e771b1839c0257570ad338d5256ef0029",
  "source": "pragma solidity ^0.5.0;\r\nimport \"./ownable.sol\";\r\nimport \"./feeSupport.sol\";\r\n\r\n/**\r\n * @title Post\r\n * @author Duncan\r\n * @dev The Post contract provides simple operations to leave message and fetch txhash on ethereum via transaction data.\r\n *      Users simply sends message to \"post\" method, and get the txhash.\r\n *      Then they send the txhash to \"addPostTxHashes\" method, making the txhash easily accessible via the contract.\r\n *      Readers can get all the post txhashes and then get the message by asking full nodes with txhashes.\r\n */\r\ncontract Post is FeeSupport{\r\n    \r\n    uint256[] postTxHashes;\r\n    \r\n    /**\r\n     * @dev The purpose of the function is to make _replyTxHash and _content recorded in transaction data on chain.\r\n     *      An payable empty function is sufficient to do so.\r\n     */\r\n    function post(uint256 _replyTxHash, string memory _content) public payable chargePostFee{}\r\n    \r\n    /**\r\n     * @dev After post method called, one can choose if they want the txhash recorded by \r\n     *      Currently, there is no way to check if txhash exists on chain by solidity\r\n     *      To prevent abusement, One must pay to use this function\r\n     */\r\n    function addPostTxHashes(uint256 _postTxHash) public payable chargeAddTxHashFee {\r\n        postTxHashes.push(_postTxHash);\r\n    }\r\n    \r\n    /**\r\n     * @return All the txhashes will be returned and readers can use them to query full nodes to get messages.\r\n     */    \r\n    function getPostTxHashes() public view returns(uint256[] memory) {\r\n        return postTxHashes;\r\n    }\r\n    \r\n}",
  "sourcePath": "D:/Duncan/desktop/NTU/107-2/Dapp/workspace/BlockBoard/solidity/contracts/post.sol",
  "compiler": {
    "name": "solc",
    "version": "0.5.0+commit.1d4f565a.Emscripten.clang"
  },
  "schemaVersion": "3.0.6",
  "updatedAt": "2019-04-19T03:05:28.468Z",
  "devdoc": {
    "author": "Duncan\r",
    "details": "The Post contract provides simple operations to leave message and fetch txhash on ethereum via transaction data.\r     Users simply sends message to \"post\" method, and get the txhash.\r     Then they send the txhash to \"addPostTxHashes\" method, making the txhash easily accessible via the contract.\r     Readers can get all the post txhashes and then get the message by asking full nodes with txhashes.\r",
    "methods": {
      "addPostTxHashes(uint256)": {
        "details": "After post method called, one can choose if they want the txhash recorded by \r     Currently, there is no way to check if txhash exists on chain by solidity\r     To prevent abusement, One must pay to use this function\r"
      },
      "balance()": {
        "return": "return the current balance the contract has\r"
      },
      "getPostFee()": {
        "return": "fee needed to post an article\r"
      },
      "getPostTxHashes()": {
        "return": "All the txhashes will be returned and readers can use them to query full nodes to get messages.\r"
      },
      "isOwner()": {
        "return": "true if `msg.sender` is the owner of the contract.\r"
      },
      "owner()": {
        "return": "the address of the owner.\r"
      },
      "post(uint256,string)": {
        "details": "The purpose of the function is to make _replyTxHash and _content recorded in transaction data on chain.\r     An payable empty function is sufficient to do so.\r"
      },
      "renounceOwnership()": {
        "details": "Allows the current owner to relinquish control of the contract.\r It will not be possible to call the functions with the `onlyOwner`\r modifier anymore.\r"
      },
      "setPostFee(uint256)": {
        "details": "setter of postFee\r"
      },
      "transferOwnership(address)": {
        "details": "Allows the current owner to transfer control of the contract to a newOwner.\r",
        "params": {
          "newOwner": "The address to transfer ownership to.\r"
        }
      },
      "withdraw()": {
        "details": "withdraw money from the contract to owner\r"
      }
    },
    "title": "Post\r"
  },
  "userdoc": {
    "methods": {
      "renounceOwnership()": {
        "notice": "Renouncing ownership will leave the contract without an owner,\r thereby removing any functionality that is only available to the owner.\r"
      }
    }
  }
}